:060800006BEF1DF0120079
:06082A0001000E3B00007E
:08083000C000000002000000FE
:08083800D9CFE6FFE1CFD9FFA3
:10084000050EE126DE6ADD6ADE6ADD6A020EDB6A1B
:10085000030EDB6A020EDBCF00F0030EDBCF01F0EC
:10086000FD0EDBCF02F0FE0EDBCF03F001500318CC
:10087000E8AE02D0033404D00250005C03500158AB
:1008800045E2F90EDBCFE9FFDB2AFA0EDBCFEAFF08
:1008900001E3DB2AEFCF00F0FB0EDBCFE9FFDB2A21
:1008A000FC0EDBCFEAFF01E3DB2AEF500018E76E16
:1008B000040EE7CFDBFFD950F70FE96EFF0EDA2009
:1008C000EA6EEE50ED1011E0F70EDBCFE9FFDB2A08
:1008D000F80EDBCFEAFF01E3DB2A040EDBCFE7FFF4
:1008E000EF50E716040EE7CFDBFF040EDB5004E009
:1008F000010EDE6EDD6A0AD0D950020FE96EDACF42
:10090000EAFF080EEE26000EED22A4D7DECF00F09F
:10091000DDCF01F000C0F3FF01C0F4FF00D0050EF1
:10092000E15C02E2E16AE552E16EE552E7CFD9FF10
:100930001200D9CFE6FFE1CFD9FF050EE126040E64
:10094000DB6A040EDB6AFD0EDBCF1DF0FE0EDBCF93
:100950001EF01F6A206A1EAE02D01F682068070EB4
:100960001D26000E1E22000E1F22000E2022080E41
:10097000226E236A246A256A11EC1DF01DC0DEFF79
:100980001EC0DDFFDFCF00F0DF06010EDBCF01F080
:1009900001E2DB06005001104AE0040EDB50076E56
:1009A000086AFB0EDBCF03F0FC0EDBCF04F0DE5059
:1009B0000324E96EDD500420EA6EEFCF02F0F90E59
:1009C000DBCF05F0FA0EDBCF06F0DE500524E96E32
:1009D000DD500620EA6EEF500224016A013607243A
:1009E000006E08500122020E00C0DBFF030E01C0A2
:1009F000DBFFFF0ED8800054000E015406E2010E0A
:100A0000F36E040EF3CFDBFF02D0040EDB6AFB0EA5
:100A1000DBCF00F0FC0EDBCF01F0DE500024E96EEE
:100A2000DD500120EA6E020EDBCFEFFFABD7050EE3
:100A3000E15C02E2E16AE552E16EE552E7CFD9FFFF
:100A40001200D9CFE6FFE1CFD9FF050EE126DE6A1D
:100A5000DD6ADE6ADD6AFD0EDBCF1DF0FE0EDBCF48
:100A60001EF01F6A206A1EAE02D01F682068070EA3
:100A70001D26000E1E22000E1F22000E2022080E30
:100A8000226E236A246A256A11EC1DF0030E1DC034
:100A9000DBFF040E1EC0DBFF030EDBCF00F0DB0626
:100AA000040EDBCF01F001E2DB060050011024E070
:100AB000030EDBCF00F0040EDBCF01F0FB0EDB50AA
:100AC0000024E96EFC0EDB500120EA6E020EEFCF2F
:100AD000DBFF020EDB500FE0020EDB50010BDE26C7
:100AE000000EDD22020EDBCFF3FFF390F342020E85
:100AF000F3CFDBFFEED7D0D7DECF00F0DDCF01F0B4
:100B000000C0F3FF01C0F4FF00D0050EE15C02E27B
:100B1000E16AE552E16EE552E7CFD9FF1200D9CF85
:100B2000E6FFE1CFD9FF060EE126040EDB6A050ED3
:100B3000DB6A040EDB6A050EDB6AFD0EDBCF00F01C
:100B4000FE0EDBCF01F00006000E015A020E00C0BF
:100B5000DBFF030E01C0DBFF020EDBCF00F0030E54
:100B6000DBCF01F00001800E011401E07CD0020E09
:100B7000DBCF00F0030EDBCF01F0F50EDB500024DD
:100B8000E96EF60EDB500120EA6E010EEFCFDBFFBF
:100B9000010EDB5062E0010EDF6E010EDB505DE006
:100BA000010EDBA04FD0050EDB5019E1F90EDB067C
:100BB000DBCF00F0FA0E01E2DB06DBCF01F0F70E2F
:100BC000DB500024E96EF80EDB500120EA6E040EC3
:100BD000EFCFDBFF010EF36E050EF3CFDBFF050E4B
:100BE000DBCFE6FF040EDB50E552E71411E0020E06
:100BF000DBCF00F0030EDBCF01F0FB0EDB50002457
:100C0000E96EFC0EDB500120EA6EDF50EF1212D0CD
:100C1000DF1C026E020EDBCF00F0030EDBCF01F013
:100C2000FB0EDB500024E96EFC0EDB500120EA6E67
:100C30000250EF16050EDBCFF3FFF39EF346050ED1
:100C4000F3CFDBFFDF9EDF46010EDBCFF3FFF39038
:100C5000F342010EF3CFDBFFA0D7020EDB06030E3B
:100C600001E2DB0679D7060EE15C02E2E16AE552B9
:100C7000E16EE552E7CFD9FF1200D9CFE6FFE1CF11
:100C8000D9FF100EE126DE6ADD6ADE6ADD6AD95020
:100C9000FD0FE96EFF0EDA20EA6EEE50ED102BE14B
:100CA000F10EDBCF00F0F20EDBCF01F0F30EDBCF65
:100CB00002F0F40EDBCF03F000500110021003101D
:100CC00019E0010EE66EEAEC18F0E552D950F10F8A
:100CD000E96EFF0EDA20EA6EEECFE6FFEECFE6FF1A
:100CE000EECFE6FFEFCFE6FF3EEC16F0E552E55221
:100CF000E552E5528DD1FD0EDBCF00F0FE0EDBCFCD
:100D000001F0026A036A01AE02D002680368070EAE
:100D10000026000E0122000E0222000E0322030E06
:100D2000D8900332023201320032E806F9E10006BF
:100D3000000E015A000E025A000E035A020E00C0A5
:100D4000DBFF030E01C0DBFF020EDBCF02F0030E60
:100D5000DBCF03F0FB0EDB500224006EFC0EDB50F9
:100D60000320016E0B0E00C0DBFF0C0E01C0DBFF89
:100D7000D950060F026EDACF03F0020EDB500224C8
:100D8000006E030EDB500320016E0D0E00C0DBFF72
:100D90000E0E01C0DBFFF60EDBCFE6FFEAEC18F02B
:100DA000E552FD0EDBCF1FF0FE0EDBCF20F0040E70
:100DB0001FC0DBFF050E20C0DBFFD950040FE96E1A
:100DC000DACFEAFFEE50ED1061E00D0EDBCFE9FF68
:100DD0000E0EDBCFEAFFEF6A010EF36E0F0EF3CFBC
:100DE000DBFF0F0EDB5047E0D950040FE96EDACF7E
:100DF000EAFFEE50ED103FE0F50EDB50F36EF60E1D
:100E0000DB50F35C0DE0D950040FE96EDACFEAFF56
:100E1000010EEE1801E1ED5003E1818836EC1AF085
:100E20000F0EDBCFE6FF0B0EDBCFE9FF0C0EDBCFA7
:100E3000EAFFEF50E552E71402E0818A01D0819A7F
:100E40008194040EDB06050E01E2DB0681A609D0C3
:100E50000D0EDBCFE9FF0E0EDBCFEAFF0F0EDB50EE
:100E6000EF1281840F0EDBCFF3FFF39EF3460F0EDC
:100E7000F3CFDBFFB6D70B0EDB060C0E01E2DB0671
:100E80000D0EDB060E0E01E2DB0697D7D950F90FE7
:100E9000E96EFF0EDA20EA6EEE50ED102AE0F70E52
:100EA000DBCFE6FFF80EDBCFE6FFD950060FE66E8C
:100EB000000EDA20E66EF90EDBCFE6FFFA0EDBCF8E
:100EC000E6FFFD0EDBCFE6FFFE0EDBCFE6FFB4DC78
:100ED000026E080EE15E0250F3CF00F0F4CF01F095
:100EE0000050011004E0020EDE6EDD6A02D0DE6A00
:100EF000DD6AF50EDB50F36EF60EDB50F35C01E1BC
:100F000078D0D9CFE9FFDACFEAFFEE50ED101FE03D
:100F1000F10EDBCF00F0F20EDBCF01F0F30EDBCFF2
:100F200002F0F40EDBCF03F00050011002100310AA
:100F30000EE0F00EDB500BE0060EE66EEAEC18F069
:100F4000E552040EE66EEAEC18F0E55206D0F50E16
:100F5000DBCFE6FFEAEC18F0E552F10EDBCF00F054
:100F6000F20EDBCF01F0F30EDBCF02F0F40EDBCF9D
:100F700003F000500110021003103BE0010EE66E7A
:100F8000EAEC18F0E552D950F10FE96EFF0EDA20C5
:100F9000EA6EEECFE6FFEECFE6FFEECFE6FFEFCF55
:100FA000E6FF3EEC16F0E552E552E552E552F10E51
:100FB000DBCF00F0F20EDBCF01F0F30EDBCF02F05F
:100FC000F40EDBCF03F0020ED8900332023201326E
:100FD0000032E806F9E1D950F10FE96EFF0EDA2090
:100FE000EA6E0050EE260150EE220250EE2203502F
:100FF000EE22D9CFE9FFDACFEAFFEE50ED1008E09C
:10100000F00EDBCFF3FFDB06F350000901E09CD6C6
:10101000DECF00F0DDCF01F000C0F3FF01C0F4FF30
:1010200000D0100EE15C02E2E16AE552E16EE552A9
:10103000E7CFD9FF1200D9CFE6FFE1CFD9FFFD0EF0
:10104000DBCFE6FFFE0EDBCFE6FFFB0EDBCFE6FFDE
:10105000FC0EDBCFE6FF97EC15F0E552E552E552CA
:10106000E552D950F90FE96EFF0EDA20EA6EEE5024
:10107000ED1012E0FD0EDBCFE6FFFE0EDBCFE6FF4C
:10108000F90EDBCFE6FFFA0EDBCFE6FF97EC15F0AB
:10109000E552E552E552E552E66AE66AE66AE66A34
:1010A000E66AF70EDBCFE6FFF80EDBCFE6FF000EB9
:1010B000E66EE66AF90EDBCFE6FFFA0EDBCFE6FF5F
:1010C000FB0EDBCFE6FFFC0EDBCFE6FFFD0EDBCF3A
:1010D000E6FFFE0EDBCFE6FFD0DD006E0F0EE15E19
:1010E000005000D0E552E7CFD9FF1200D9CFE6FF7C
:1010F000E1CFD9FF120EE126DE6ADD6A010EF36E42
:10110000030EF3CFDBFF010EF36E040EF3CFDBFF14
:10111000200EF36E050EF3CFDBFF060EDB6A070E23
:10112000DB6A080EDB6A090EDB6A0A0EDB6A0B0E4D
:10113000DB6A0C0EDB6A0D0EDB6ADE6ADD6A010E0D
:10114000F36E030EF3CFDBFF010EF36E040EF3CF4D
:10115000DBFF200EF36E050EF3CFDBFF060EDB6A1E
:10116000070EDB6A080EDB6A090EDB6A0A0EDB6A11
:101170000B0EDB6A0C0EDB6A0D0EDB6ADEEC18F080
:10118000D9CFE9FFDACFEAFFEE50ED1001E043D30B
:1011900011EC14F0E76E020EE7CFDBFF020EDB501E
:1011A00001E139D3020EDB50160A01E11FD31D0AFB
:1011B00001E13ED2010A01E104D21E0A01E1F4D1AB
:1011C000070A01E1E4D1010A01E1D1D1030A01E1F9
:1011D000B1D11E0A01E192D11F0A01E18FD11E0A8D
:1011E00001E170D1020A01E152D1010A01E14FD1BE
:1011F0000E0A01E10AD10A0A01E1B6D00B0A5EE04B
:10120000170A5CE01D0A2EE00F0A25E0030A14E02D
:10121000050A01E0EED20A0EDBCFE6FF0B0EDBCFB4
:10122000E6FF8F0EE66E000EE66E97EC15F0E552C7
:10123000E552E552E552E1D2CDEC14F0060E1DC0A8
:10124000DBFF070E1EC0DBFF080E1FC0DBFF090E11
:1012500020C0DBFFD2D2E8EC13F0E76E050EE7CF3B
:10126000DBFFCBD2CDEC14F00A0E1DC0DBFF0B0E62
:101270001EC0DBFF070EE76E0A0EDBCF00F00B0E81
:10128000DBCF01F0E7500026000E0122080E246E8D
:10129000256A00C01FF001C020F039EC1AF01FC011
:1012A00000F020C001F0013404E200500508000EF7
:1012B000015403E2060EDE6EDD6A9FD2020EDB50A1
:1012C00002080DE1E8EC13F0E66ED9500E0FE96E5E
:1012D000DACFEAFFE552E750EE6EED6A08D074EC23
:1012E00014F00E0EF3CFDBFF0F0EF4CFDBFF0E0E6C
:1012F000DBCFE6FF0F0EDBCFE6FF800EE66E000EC3
:10130000E66E97EC15F0E552E552E552E552E66AD5
:10131000D950060FE96EDACFEAFFEECFE6FFEECF47
:10132000E6FFEECFE6FFEFCFE6FF030EDBCFE6FFF3
:101330000B0EE66E000EE66EE66A000EE66EE66ADC
:10134000800EE66E000EE66E0E0EDBCFE6FF0F0E91
:10135000DBCFE6FF92DC006E0F0EE15E0050F3CFB4
:10136000DEFFF4CFDDFF49D20A0EDBCFE6FF0B0E26
:10137000DBCFE6FF800EE66E000EE66E97EC15F012
:10138000E552E552E552E5520A0EDBCFE6FF0B0EC1
:10139000DBCFE6FF8A0EE66E000EE66E97EC15F0E8
:1013A000E552E552E552E552050EDBCFE6FFD95096
:1013B000060FE96EDACFEAFFEECFE6FFEECFE6FFEB
:1013C000EECFE6FFEFCFE6FF040EDBCFE6FF040E25
:1013D000E66E8F0EE66E000EE66E8A0EE66E000E6C
:1013E000E66E800EE66E000EE66E0A0EDBCFE6FFBE
:1013F0000B0EDBCFE6FF41DC006E0F0EE15E00500E
:10140000F3CFDEFFF4CFDDFFF8D10A0EDBCFE6FF2E
:101410000B0EDBCFE6FF800EE66E000EE66E97EC5D
:1014200015F0E552E552E552E552050EDBCFE6FF39
:10143000D950060FE96EDACFEAFFEECFE6FFEECF26
:10144000E6FFEECFE6FFEFCFE6FF040EDBCFE6FFD1
:10145000040EE66E8F0EE66E000EE66E8A0EE66EE7
:10146000000EE66E800EE66E000EE66E0A0EDBCF14
:10147000E6FF0B0EDBCFE6FF3DEC06F0006E0F0E35
:10148000E15E0050F3CFDEFFF4CFDDFFB6D1040EF6
:10149000E66E040EE66E000EE66EE66A800EE66EFE
:1014A000000EE66E0A0EDBCFE6FF0B0EDBCFE6FF8B
:1014B000C2DD006E080EE15E0050F3CFDEFFF4CF18
:1014C000DDFF9BD1040EDBCFE6FF040EE66E000EBF
:1014D000E66EE66A800EE66E000EE66E0A0EDBCF62
:1014E000E6FF0B0EDBCFE6FFA6DD006E080EE15E29
:1014F0000050F3CFDEFFF4CFDDFF7FD1040EE66EA8
:10150000040EE66E8A0EE66E000EE66E800EE66E45
:10151000000EE66E0A0EDBCFE6FF0B0EDBCFE6FF1A
:101520008ADD006E080EE15E0050F3CFDEFFF4CFDF
:10153000DDFF63D1040EDBCFE6FF040EE66E8A0EFC
:10154000E66E000EE66E800EE66E000EE66E0A0E89
:10155000DBCFE6FF0B0EDBCFE6FF6DDD006E080E86
:10156000E15E0050F3CFDEFFF4CFDDFF46D1010E88
:10157000E66EE66A40EC14F0E552E552E66EEAECFF
:1015800018F0E552F3CFDEFFF4CFDDFF36D10D0EBC
:10159000E66E010EE66E40EC14F0E552E552E76EA1
:1015A000030EE7CFDBFF29D1060EE66E010EE66ED5
:1015B00040EC14F0E552E552E76E040EE7CFDBFF96
:1015C0001CD10A0EDBCFE6FF0B0EDBCFE6FF990E38
:1015D000E66E000EE66E97EC15F0E552E552E55228
:1015E000E5520A0EDBCFE6FF0B0EDBCFE6FF940ED3
:1015F000E66E000EE66E97EC15F0E552E552E55208
:10160000E552940EE66E000EE66E0A0EDBCFE6FFA4
:101610000B0EDBCFE6FF21EC05F0E552E552E5527B
:10162000E5520C0EF3CFDBFF0D0EF4CFDBFFE5D060
:101630000A0EDBCFE6FF0B0EDBCFE6FF800EE66E79
:10164000000EE66E97EC15F0E552E552E552E552D4
:10165000050EDBCFE6FFD950060FE96EDACFEAFFC1
:10166000EECFE6FFEECFE6FFEECFE6FFEFCFE6FFF1
:10167000040EDBCFE6FF040EE66E8F0EE66E000E64
:10168000E66E8A0EE66E000EE66E800EE66E000EC8
:10169000E66E0A0EDBCFE6FF0B0EDBCFE6FF3DEC7E
:1016A00006F0006E0F0EE15E0050F3CFDEFFF4CFC8
:1016B000DDFFD9CFE9FFDACFEAFFEE50ED1001E010
:1016C00094D0E8EC13F0E66ED950100FE96EDACF43
:1016D000EAFFE552E750EE6EED6A100EDBCF00F048
:1016E000DB06110EDBCF01F001E2DB06005001103A
:1016F00001E17BD0D9CFE9FFDACFEAFFEE50ED1060
:1017000074E10C0EDBCFE6FF0D0EDBCFE6FF850E9E
:10171000E66E000EE66E97EC15F0E552E552E552E6
:10172000E552990EE66E000EE66E800EE66E000E35
:10173000E66E0A0EDBCFE6FF0B0EDBCFE6FF99EC81
:1017400004F0006E060EE15E0050940EE66E000E90
:10175000E66E850EE66E000EE66E0C0EDBCFE6FF43
:101760000D0EDBCFE6FF800EE66E000EE66E0A0E73
:10177000DBCFE6FF0B0EDBCFE6FF8FEC05F0006E54
:101780000A0EE15E0050050EDBCFE6FFD950060FD2
:10179000E96EDACFEAFFEECFE6FFEECFE6FFEECF5F
:1017A000E6FFEFCFE6FF040EDBCFE6FF040EE66EAA
:1017B0008F0EE66E000EE66E8A0EE66E000EE66E88
:1017C000800EE66E000EE66E0A0EDBCFE6FF0B0E15
:1017D000DBCFE6FF3DEC06F0006E0F0EE15E005041
:1017E000F3CFDEFFF4CFDDFF78D707D00BEC16F098
:1017F00004D0040EDE6EDD6A00D0D9CFE9FFDACF67
:10180000EAFFEE50ED1006E1E2EC13F0F3CFDEFF5D
:10181000F4CFDDFFB5D4DECF00F0DDCF01F000C0A6
:10182000F3FF01C0F4FF00D0120EE15C02E2E16AB6
:10183000E552E16EE552E7CFD9FF1200D9CFE6FFBE
:10184000E1CFD9FF030EE126A2EC12F081849EA81D
:10185000FED72D0EAD6E000081949EAA57D0BAEC33
:1018600012F0E76E020EE7CFDBFF620E006E020E93
:10187000DB50005C01E1FF00520E006E020EDB50F7
:10188000005C05E1060E836E82808290836A470EBB
:10189000006E020EDB50005C05E10A0E836E828052
:1018A0008290836A4F0E006E020EDB50005C05E1F1
:1018B000020E836E82808290836A640E006E020E36
:1018C000DB50005C02E1FBEC16F0670E006E020ECE
:1018D000DB50005C1BE176EC13F0F3CFDEFFF4CFBE
:1018E000DDFFD9CFE9FFDACFEAFFEE50ED1006E1D8
:1018F00076EC08F0F3CFDEFFF4CFDDFFDECFE6FFBE
:10190000DDCFE6FFADEC13F0E552E552A6D7030EAE
:10191000E15C02E2E16AE552E16EE552E7CFD9FF10
:021920001200B3
:0E192200CDEC11F0FB0EDBCFF3FFDB06F35034
:1019300000090AE01BEC12F0FA0E86EC12F0F3E15B
:10194000011CF1E1010E01D0000EFCEF11F0CDEC15
:1019500011F03B0EE12402E3E168E652E16E010E74
:10196000DB6A020EDB6AF90EDBCFF6FFFA0EDBCF85
:10197000F7FFFB0EDBCFF8FF0800F550DF6EDF50FE
:1019800002E120EF11F0250EDF5C02E013EF11F011
:10199000030EDB6A040EDB6A050EDB6A060EDB6AE9
:1019A000070EDB6A35EC11F02D0EDF5C0CE02B0E20
:1019B000DF5C09E0200EDF5C06E0230EDF5C03E065
:1019C000300EDF5C1AE1DF50300A14E0130A0FE03A
:1019D000030A0AE00B0A05E0060AE4E1030EDB80D5
:1019E000E1D7030EDB82DED7030EDB84DBD7030EE9
:1019F000DB86D8D7030EDB88D5D72A0EDF5C1BE148
:101A000031EC11F07FEC11F010E0030EDB801F6869
:101A10002068130EDBCF24F0140EDBCF25F093ECFF
:101A20001AF0040E1DC0DBFF03D0130E68EC11F09A
:101A300035EC11F00BD0090EDB6AD6EC11F003E0A7
:101A40004AEC12F0FAD7090E68EC11F0030EDBB085
:101A5000DB982E0EDF5C1BE135EC11F02A0EDF5C0B
:101A60000BE131EC11F07FEC11F003E1130EBAEC55
:101A700011F035EC11F00BD0090EDB6AD6EC11F049
:101A800003E04AEC12F0FAD7090EBAEC11F0680E36
:101A9000DF5C07E135EC11F0680EDF5C1DE1030E41
:101AA00018D0740EDF5C17E07A0EDF5C14E0480E8D
:101AB000DF5C06E0540EDF5C03E05A0EDF5C02E1FF
:101AC000020E07D06C0EDF5C03E06A0EDF5C04E1FF
:101AD000010E0DEC12F0C9DBDF506E0A01E17FD37D
:101AE0001E0A01E192D1200A01E18FD13F0A01E1F2
:101AF00049D11A0A01E146D10D0A01E143D1200A78
:101B000001E140D13A0A01E13DD1200A01E13AD197
:101B1000260A01E135D10D0A01E132D11A0A01E1AB
:101B2000D9D0200A4AE0300A1FE0460A0EE0250A12
:101B300001E083D3D950F90FE96EFF0EDA20EA6E87
:101B4000010EEE5E000EEE5AEE5A1BEC12F0250E60
:101B5000E66E95DB03E1011C01E169D317EC12F09D
:101B600001E26BD3DB2A69D3080EDB6A040EDB507B
:101B7000010806E2040EDB04DFEC11F0DB508BDB26
:101B8000080EDB5009E0030EDB50010B05E172DBB0
:101B900001E04DD3080EDB6A64DBEFCFDFFF8FEC93
:101BA00012F003E1011C01E142D317EC12F001E352
:101BB000DB2A60DB01E141D33AD3070EDB50020898
:101BC0000FE15BEC12F0030E22EC12F00E0EEECFE2
:101BD000DBFF0F0EEECFDBFF100EEECFDBFF20D0D2
:101BE000F70EDBCF03F0F80EDBCF04F0020E035E3E
:101BF000000E045AF70E03C0DBFFF80E04C0DBFF33
:101C000003C0E9FF04C0EAFF12EC12F0026A0E0EF4
:101C100000C0DBFF0F0E01C0DBFF100E02C0DBFFB8
:101C20000E0EDBCFE6FF0F0EDBCFE6FF100EDBCF95
:101C3000E6FFECEC1CF0E552E552E552130E1EC037
:101C4000DBFF140E1FC0DBFF060EDB5005E0130E9A
:101C500056EC12F001E26ADB7AEC12F002E2130EAB
:101C600037DB3DEC12F006E0040E56EC12F002E217
:101C7000050E2EDB030EDBB005D0FCDA01E0D7D277
:101C8000080EDB6A090EDB6A0E0EDBCFF6FF0F0EC5
:101C9000DBCFF7FF100EDBCFF8FF0800F550DF6E4B
:101CA000DF5014E080EC12F011E28FEC12F003E14F
:101CB000011C01E1BCD2BBDB01E3DB2A090EDB2AFC
:101CC000D9500E0FE96E000ECBDBE7D7D3DA01E176
:101CD000B4D2ADD2C6DA110EEECFDBFF120EEDCFCD
:101CE000DBFF110EDBCFE6FF120EDBCFE6FFDEECF3
:101CF0001CF0E552E552130EF3CFDBFF140EF4CFC8
:101D0000DBFF060EDB5004E0130ED0DB01E20EDB3E
:101D10007AEC12F002E2130EDBDAAFDB05E0040E20
:101D2000C5DB02E2050ED4DA030EDBB005D0A2DA81
:101D300001E07DD2080EDB6A090EDB6A110EDBCFF3
:101D4000E9FF120EDBCFEAFFEFCFDFFFDF5014E039
:101D5000D7DB12E2E4DB03E1011C01E168D267DBBF
:101D600001E3DB2A090EDB2A110EDB2ADBCFE9FFB8
:101D7000120EE8E3DB2AE6D77DDA01E15ED257D224
:101D8000030EDB8E070EDB0410E195DB040E5ADB3D
:101D90000A0EEECFDBFF0B0EEECFDBFF0C0EEECF0D
:101DA000DBFF0D0EEECFDBFF6CD0070EDB50030820
:101DB0002CE1030EDBAE0DD0B2DA020E76DAEFCFF5
:101DC00000F0016A026A036A00AE39D00168026855
:101DD00035D0F70EDBCF01F0F80EDBCF02F0020EAC
:101DE000015E000E025AF70E01C0DBFFF80E02C0C2
:101DF000DBFF01C0E9FF02C0EAFFEFCF00F00A0EEF
:101E000000C0DBFF0B0EDB6A38D0070EDB50020888
:101E100009E1030EDBAE04D059DB02AE10D00ED0C8
:101E200055DB0DD0030EDBAE12D079DA020E3DDAAF
:101E3000F9DA026A036A01AE02D002680368E2DAE4
:101E40000C0E02C0DBFF0D0E03C0DBFF1AD0F70E35
:101E5000DBCF02F0F80EDBCF03F0020E025E000EC5
:101E6000035AF70E02C0DBFFF80E03C0DBFF02C00F
:101E7000E9FF03C0EAFFD6DAC5DA0C0EDB6A0D0E05
:101E8000DB6A060EDB5005E1010EF36E050EF3CFA3
:101E9000DBFF150EDB6A160EDB6AD950370F006EBA
:101EA000000EDA20016E390E00C0DBFF3A0E01C0D1
:101EB000DBFF380EDB6A080EDB6A0A0EAEDADF5093
:101EC000780A12E0200A10E0280A0CE0200A0AE052
:101ED0003F0A06E00D0A02E0200A08E1020E05D0E2
:101EE000080E03D0080EDF26100E97DA030EDBBEB5
:101EF00002D0DB92DB94DB50800B24E08ADAD890AE
:101F0000030EEB50000A08E6000EEE5C000EEE58E1
:101F1000000EEE58000EEE5815E213DA2268236820
:101F200024682568A6EC1CF00A0E19C0DBFF0B0E16
:101F30001AC0DBFF0C0E1BC0DBFF0D0E1CC0DBFF4D
:101F40002D0E08D0030EDBA202D02B0E03D0DBA493
:101F500008D0200EF36E170EF3CFDBFF150EDB2A31
:101F600002D0170EDB6A050EDB5003E1B7D901E1A1
:101F700089D0EC0E006E3A0E016E000E026E070E56
:101F8000DBCF03F0046A056A066A03C022F004C0CE
:101F900023F005C024F006C025F0D3D911EC1DF0C4
:101FA00000501924F36E01501A20F46E02501B20C9
:101FB000F86EF4CFF7FFF3CFF6FF0800090EF5CF68
:101FC000DBFF580EDF5C0FE1610EF36E090E7BD96B
:101FD0000AE3200E006E090EDBCFE7FF0050E75E3C
:101FE000090EE7CFDBFF070EDBCF00F0016A026AC4
:101FF000036A0FDA00C022F001C023F002C024F00F
:1020000003C025F0EECF1DF0EECF1EF0EECF1FF097
:10201000EFCF20F011EC1DF020C0EDFF1FC0EDFF51
:102020001EC0EDFF1DC0EFFF390EDBCFE9FFDB0661
:102030003A0EDBCFEAFF01E2DB06090EDBCFEFFF52
:10204000150EDB2A4BD995E1030EDBA61DD06F0ED2
:10205000DF5C06E1C1D918E3150EDB285BDA14D08A
:10206000780EDF5C09E0580EDF5C06E0620EDF5C94
:1020700003E0420EDF5C08E1020EF36E160EF3CFB2
:10208000DBFF02D0150EDB6A030EDB50100B0EE0F7
:10209000040EDBCF00F0050EDB50D880005406E2C2
:1020A000060EDB5003E1040EDB5034DA95D90AE268
:1020B000050EDBCFE7FF150EDB50E75E050EE7CF21
:1020C000DBFF02D0050EDB6A040EDBCF00F0160E3C
:1020D00045D9D880005414E2160EDBCFE6FF150E6A
:1020E000DBCFE6FF040EDBCFE6FF050EDB50E5524B
:1020F000E75CE552D880E754E552D880E7545FD9D1
:10210000030EDB50010B0BE1080EDB5008E0B2D8E8
:1021100001E08DD0080EDB50BED8080EDB6A170E2A
:10212000DB5007E088D9170EF1D903E1011C01E16A
:102130007ED0160EDB5016E07ED9300EE66E9FD8AC
:1021400002E1011C74E077D9DFCFE6FFE9EC1BF078
:10215000E552E552E552F4CF01F00001F31C02E133
:10216000011C65E0050EDBCF00F0160EDB50D880B9
:10217000005409E2050EDBCFE7FF160EDB50E75EE9
:10218000050EE7CFDBFF300EE66E050ECBD94FE133
:10219000390EDB2ADBCFE9FF3A0E01E3DB2ADBCF86
:1021A000EAFF090EEFCFDBFFDB500EE044D9090E4A
:1021B000ADD902E1011C3BE0390EDB2ADBCFE9FFA0
:1021C0003A0EEDE3DB2AEBD755D831E1160EDBCF23
:1021D000E6FF080EC3D8E552E7245DD82ED0070EDF
:1021E000DB50030A1CE0010A14E0030A07E07BD974
:1021F000DBCFEEFF020EDBCFEDFF1FD0F5D8056A77
:1022000003AE02D0046805682CD8BCD805C0EEFF28
:1022100014D0EAD803BE046824D8B4D80ED063D949
:10222000DBCFEFFF0AD07BD905E1011C03E1F368A6
:10223000F46810D0FCD801E3DB2A79D9BCEF0CF0AC
:10224000010EDBCF00F0020EDBCF01F000C0F3FF88
:1022500001C0F4FF3B0EE15C02E2E16AE552E16E8F
:10226000CBD029D9020E22EF12F061D90800F55027
:10227000DF6E1200200EE66E080E92EF12F0E9EC0F
:102280001BF0E552E552E552F3CF00F0F4CF01F038
:102290000001F31C1200006E016AD950010F4DD9E4
:1022A0000050EE260150ED221200045E000E055A89
:1022B000F70E04C0DBFFF80E05C0DBFF04C0E9FF2A
:1022C00005C0EAFF1200DBCFF4FFF350F45C12000C
:1022D000DB50E76E040EE7CFDBFF12000A0EDBCF08
:1022E00000F00B0EDBCF01F00C0EDBCF02F00D0E79
:1022F000DBCF03F000500110021003101200130E88
:10230000EECFDBFF140EEDCFDBFF130EDBCF00F0C3
:10231000140EDBCF01F00001800E01141200F70E45
:10232000DBCF04F0F80EDBCF05F01200050EDB501A
:10233000E66ED950130F01D9E552E750EE6EED6A03
:1023400012000A0EDBCF1DF00B0EDBCF1EF00C0EC1
:10235000DBCF1FF00D0EDBCF20F01200DBCFE6FF4E
:10236000150EDBCFE6FF050EDB50E552E724E55204
:10237000E7241200DB50CED8010EF36E060EF3CF29
:10238000DBFF1200EE50EFCFEAFFE96E02C0EEFF76
:1023900003C0EEFF04C0EEFF1200D9CFE6FFDACF94
:1023A000E6FFE1CFD9FFE2CFDAFF1200DFCFE6FF91
:1023B000E66A4BEC1DF0E552E552F3501200E76E71
:1023C000080EE7CFDBFF1200EECF00F0EECF01F0FA
:1023D000EFCF02F0036A1200050EDBCF00F0150EFE
:1023E000DB50D88000541200010EDBCF02F0020E49
:1023F000DBCF03F0046A1200E552E5CFDAFFE7CF46
:10240000D9FF12000A0E00C0DBFF0B0E01C0DBFF7C
:102410001200D9500A0F9DEF12F0F36E070EF3CFA2
:10242000DBFF1200EECF00F0EFCF01F01200010E43
:10243000DB2A020E1200FC0EDBCFE6FFFD0EDBCF27
:10244000E6FF1200005E000E015AF70E00C0DBFF2F
:10245000F80E01C0DBFF00C0E9FF01C0EAFF120077
:10246000DA20EA6EEF2AEECFF6FF000EEF22EECF73
:10247000F7FFEF22EECFF8FF1200040EDBCFE6FFEE
:10248000130EDB50E552E75C9ADFDB5004DF060EEB
:10249000DB501200090EDB500A0DF350DF24D00F81
:1024A000E76E090EE7CFDBFF35EF11F0DB50F36E7F
:1024B000050E63EF11F0F70EDBCF00F0F80EDBCF67
:1024C00001F01200DFCFE6FF3FEF11F028DF030E2F
:1024D000ECDEE4EF11F091EC0CF0E552E552E55240
:1024E000E55200091200BDDEEE50EFCFEAFFE96EC3
:1024F000010E1200130EDB50F36E040E63EF11F0A9
:10250000040EDB50F36E090E63EF11F0DBCFE6FF34
:102510003FEF11F0E76E050EE7CFDBFF12008BDF18
:1025200062EF12F0DBCFE6FF86DF6BEF12F0D950DF
:10253000F90FE96EFF0E30EF12F0E96E000EDA20AF
:04254000EA6E12002D
:0C2544003F0E806E3F0E926E0F0EC16EB7
:10255000070EB46ED20E816EC20E936ED20E826ED4
:10256000D20E946E836A956A040E846E966A5BEC52
:102570001BF01200D9CFE6FFE1CFD9FFE6529EAAA9
:10258000FED7AE50DF6EDF5000D0E552E552E7CF08
:10259000D9FF1200D9CFE6FFE1CFD9FFE652EADF3B
:1025A000DF6E1B0E006EDF50005C01E1FF00300E9D
:1025B000006EDF50D880005404E3DF50660801E36A
:1025C00001D0EDD7410E006EDF50D880005405E3F6
:1025D000DF50460802E3200EDF26610E006EDF505A
:1025E000D880005408E3DF50660805E3610EDF5E23
:1025F0000A0EDF2602D0300EDF5EDF5000D0E5523B
:10260000E552E7CFD9FF1200D9CFE6FFE1CFD9FFDE
:10261000E652C0DFDF6EDF38F00BDF6EBBDFDF2698
:10262000DF5000D0E552E552E7CFD9FF1200D9CFF5
:10263000E6FFE1CFD9FF020EE126C968C7A0FED7A9
:10264000C950DF6EDF5000D0006E020EE15C02E286
:10265000E16AE552E16E0050E552E7CFD9FF120082
:10266000D9CFE6FFE1CFD9FF040EE126FB0EDBCF89
:10267000DEFFDBCFDDFFF90EDBCF1FF0FA0EDBCF85
:1026800020F0020E1FC0DBFF030E20C0DBFF020E96
:10269000DBCF00F0DB06030EDBCF01F001E2DB064F
:1026A000005001100EE0C3DFE66EDFCFE9FFDF2A46
:1026B000010EDBCFEAFF01E3DB2AE552E750EF6EC4
:1026C000E6D7F90EDBCF00F0FA0EDBCF01F000C049
:1026D000F3FF01C0F4FF00D0040EE15C02E2E16A06
:1026E000E552E16EE552E7CFD9FF1200EF0EE66E3C
:1026F000380EE66E000EE66E0FEC1BF0E552E5526A
:10270000E5520001B26BB36B0001AE6B0001AF6B21
:102710008B94030EC96EC7A0FED7C96AC7A0FED7A7
:10272000020EC96EC7A0FED7C96AC7A0FED7010EA8
:102730000001B06FB16B0001B01D01E1B11D02E1FC
:10274000070E01D0000E006E016A00BE016800C0D5
:10275000F3FF01C0F4FF00D01200D9CFE6FFE1CFB4
:10276000D9FF0001B01D01E1B11D01E08B84D950FA
:10277000FD0FE96EFF0EDA20EA6EEE50ED1013E069
:10278000FD0EDBCFE6FFFE0EDBCFE6FFDF0EE66ED3
:10279000380EE66E000EE66E0FEC1BF0006E050EB6
:1027A000E15E00500BD0D60EE66E380EE66E000EDF
:1027B000E66E0FEC1BF0E552E552E552E552E7CF2D
:1027C000D9FF1200B2C0F3FFB3C0F4FF00D0120073
:1027D000D9CFE6FFE1CFD9FFE652010EE66EE66AF9
:1027E000D9CFE6FFDACFE6FFB0C0E6FFB1C0E6FF23
:1027F00037DF026E060EE15E0250F3CF00F0F4CF39
:1028000001F0010E001801E1015004E0070E000183
:10281000B26FB36BDF5000D0E552E552E7CFD9FF7E
:102820001200D9CFE6FFE1CFD9FFE652010EE66EE6
:10283000E66AD9CFE6FFDACFE6FFB0C0E6FFB1C067
:10284000E6FF0EDF026E060EE15E0250F3CF00F0EF
:10285000F4CF01F0010E001801E1015003E1180E60
:10286000DF5C02E3180EDF6E9EA8FED72E0EAD6E63
:102870000000DF5000D0E552E552E7CFD9FF12004B
:10288000D9CFE6FFE1CFD9FFE652010EE66EE66A48
:10289000D9CFE6FFDACFE6FFB0C0E6FFB1C0E6FF72
:1028A000DFDE026E060EE15E0250F3CF00F0F4CFE1
:1028B00001F0010E001801E1015003E1DF500108B1
:1028C00003E2100EDF6E09D0DF5004E0FD0EDB5096
:1028D000DF6E03D0FE0EDB50DF6EDF5000D0E5521E
:1028E000E552E7CFD9FF1200D9CFE6FFE1CFD9FFFC
:1028F000020EE126020EE66EE66AD9CFE6FFDACFD7
:10290000E6FFB0C0E6FFB1C0E6FFAADE026E060E2B
:10291000E15E0250F3CF00F0F4CF01F0020E001898
:1029200001E1015007E0070E0001B26FB36BF368DD
:10293000F46829D0DECF02F0DDCF03F002C003F04F
:10294000026A000E0216FF0E0316DECF04F0DDCF82
:1029500005F005C004F0056AFF0E0416000E05160A
:1029600002500410006E03500510016E00C0DEFF1F
:1029700001C0DDFFDECF00F0DDCF01F000C0F3FFCE
:1029800001C0F4FF00D0020EE15C02E2E16AE55210
:10299000E16EE552E7CFD9FF1200D9CFE6FFE1CFD4
:1029A000D9FF040EE126040EE66EE66AD9CFE6FFF3
:1029B000DACFE6FFB0C0E6FFB1C0E6FF51DE026E3F
:1029C000060EE15E0250F3CF00F0F4CF01F0040EEA
:1029D000001801E101500BE0070E0001B26FB36B6C
:1029E000DE6ADE6ADE6ADD6ADD52DD528BD0180EE9
:1029F000046ED9CFE9FFDACFEAFF04501F0BEECF08
:102A000000F0EECF01F0EECF02F0EECF03F007E0E2
:102A1000D8900036013602360336E806F9E1006A3E
:102A2000016A026A080E096ED9CFE9FFDACFEAFF20
:102A300009501F0BEECF05F0EECF06F0EECF07F0FA
:102A4000EECF08F007E0D890053606360736083690
:102A5000E806F9E1056A066A086A055000120650A0
:102A600001120750021208500312D9CFE9FFDACF42
:102A7000EAFFEECF0EF0EECF0FF0EECF10F0EFCF7B
:102A800011F00FC00AF010C00BF011C00CF00001E3
:102A90000D6A0A6A0C6A0D6A0A5000120B50011284
:102AA0000C5002120D500312180E166ED9CFE9FF0A
:102AB000DACFEAFF16501F0BEECF12F0EECF13F075
:102AC000EECF14F0EECF15F007E0D89015321432A7
:102AD00013321232E806F9E1136A146A156A1250C9
:102AE000001213500112145002121550031200C0AC
:102AF000DFFF010E01C0DBFF020E02C0DBFF030E91
:102B000003C0DBFFDECF1DF0DECF1EF0DECF1FF0F7
:102B1000DDCF20F0DD52DD5200D0040EE15C02E298
:102B2000E16AE552E16EE552E7CFD9FF1200D9CF55
:102B3000E6FFE1CFD9FF020EE126070EE76EFB0E9E
:102B4000DBCF00F0FC0EDBCF01F0E7500026000EDB
:102B50000122080E246E256A00C01FF001C020F07B
:102B600039EC1AF01FC000F020C001F000C0DEFFF9
:102B700001C0DDFFDECF00F0DDCF01F0013404E263
:102B800000500508000E015407E2060EDE6EDD6AF5
:102B90000001B26FB36B2CD0DECFE6FFDDCFE6FFD6
:102BA000FD0EDBCFE6FFFE0EDBCFE6FFB0C0E6FF9B
:102BB000B1C0E6FF55DD026E060EE15E0250F3CFB6
:102BC00000F0F4CF01F0DECF03F0DDCF04F00150D0
:102BD0000418E8AE02D0043404D00350005C045062
:102BE000015806E2070EDE6EDD6A0001B26FB36BBC
:102BF000DECF00F0DDCF01F000C0F3FF01C0F4FF35
:102C000000D0020EE15C02E2E16AE552E16EE552BB
:102C1000E7CFD9FF1200D9CFE6FFE1CFD9FFE652C7
:102C2000010EE66EE66AD9CFE6FFDACFE6FFB0C066
:102C3000E6FFB1C0E6FF14DD026E060EE15E025053
:102C4000F3CF00F0F4CF01F0010E001801E10150C4
:102C500009E00001070EB26FB36BB2C0F3FFB3C05F
:102C6000F4FF07D0DF5001E101D0DAD7F36AF46A4C
:102C700000D0E552E552E7CFD9FF1200D9CFE6FFE9
:102C8000E1CFD9FFD950FB0FE96EFF0EDA20EA6ED3
:102C9000020E226E236A246A256AEECF1DF0EECF63
:102CA0001EF0EECF1FF0EFCF20F05FEC1AF020C047
:102CB000EDFF1FC0EDFF1EC0EDFF1DC0EFFFD9509F
:102CC000FB0FE96EFF0EDA20EA6EEFCF00F0EE06A2
:102CD000000EEFCF01F0EE5AEFCF02F0EE5AEFCF39
:102CE00003F0EF5A005001100210031002E0000040
:0A2CF000E6D7E552E7CFD9FF120046
:062CFA00D9CFE6FFE1CF97
:102D0000D9FF070EE126050EDB6A060EDB6ADE52EE
:102D1000800EDD6E010EDB50000856E2C968C7A0C8
:102D2000FED7C950DF6EDFCF02F002C003F0026AA7
:102D3000050EDB500218006E060EDB500318016E04
:102D4000050E00C0DBFF060E01C0DBFF080EF36EB0
:102D5000020EF3CFDBFF020EDB50000832E2050E5D
:102D6000DBCF00F0060EDBCF01F0D8900036013645
:102D7000030E00C0DBFF040E01C0DBFF060EDB50BC
:102D8000800B10E0030EDBCF00F0040EDBCF01F070
:102D9000210E001A100E011A030E00C0DBFF040EF4
:102DA00001C0DBFF030EDBCF1FF0040EDBCF20F0F2
:102DB000050E1FC0DBFF060E20C0DBFF020EDB0688
:102DC000CAD7010EDB06A6D7060EDBCFBEF0050E76
:102DD000DBCF00F0060EDBCF01F00001016A00C07E
:102DE000BFF0070EE15C02E2E16AE552E16EE552F6
:102DF000E7CFD9FF1200D9CFE6FFE1CFD9FF0F0E01
:102E0000E126DE6ADE6ADE6ADD6ADD52DD52060E2A
:102E1000DB6AF29E050EF36E040EF3CFDBFF050EA8
:102E2000DB6ADE6A020EDE6EDE6ADD6ADD52DD52CC
:102E30008B94840EC96EC7A0FED7C96AC7A0FED7FF
:102E4000C96AC7A0FED7C96AC7A0FED7D950040F68
:102E5000E96EDACFEAFFEE50ED1026E00D0EDB68EA
:102E60000E0EDB689EA8FED7430EAD6E00000D0E61
:102E7000DBCF00F0DB060E0EDBCF01F001E2DB065C
:102E80000050011004E09E50200B01E1F0D79EAAF3
:102E900005D0BAEC12F0010801E106D0040EDB0601
:102EA000050E01E2DB06D2D7D950040FE96EDACF66
:102EB000EAFFEE50ED1001E177D1040EDB6A050E5A
:102EC000DB6A060EDB2A9EAAFED7BAEC12F00001DE
:102ED000BE6F9EAAFED7BAEC12F0E81C0001BF6FCD
:102EE000060EDB500001BE5D01E0C6D0060EDB50D1
:102EF0000001BF5D01E0C0D0090EDB6A090EDB50A6
:102F0000006E016AD890015004E6800E005C000E4D
:102F100001580AE29EAAFED7BAEC12F0C96EC7A009
:102F2000FED7090EDB2AEAD79EAAFED7BAEC12F02A
:102F3000E76E070EE7CFDBFF9EAAFED7BAEC12F0D2
:102F4000E76E080EE7CFDBFFD9CFE9FFDACFEAFF64
:102F5000800EEE26000EEE22000EEE22000EEE2275
:102F60000068010E016E026A036AD9CFE9FFDACF69
:102F7000EAFFEE500016EE500116EE500216EE502B
:102F8000031600500110021003106CE1D9CFE9FFC5
:102F9000DACFEAFFEE52020EEE5E000EEE5A000E9F
:102FA000EE5A8B848B94830EC96EC7A0FED7D9CFFF
:102FB000E9FFDACFEAFFEECF00F0EECF01F0EECF7F
:102FC00002F0EFCF03F0100ED8900332023201323C
:102FD0000032E806F9E10050C96EC7A0FED7D9CF8C
:102FE000E9FFDACFEAFFEECF00F0EECF01F0EECF4F
:102FF00002F0EFCF03F0080ED89003320232013214
:103000000032E806F9E10050C96EC7A0FED7000EF5
:10301000DB50C96EC7A0FED78B848B94D70EC96EC8
:10302000C7A0FED7C968C7A0FED7800EC914FAE0B2
:103030008B848B94840EC96EC7A0FED7C96AC7A0C3
:10304000FED7C96AC7A0FED7C96AC7A0FED7D9CF25
:10305000E9FFDACFEAFFEE52020EEE26000EEE2274
:10306000000EEE229EA8FED7060EAD6E0000040EE6
:10307000DB6A050EDB6A0AD09EA8FED7150EAD6E80
:103080000000040EDB2A050E01E3DB2AD950040FF1
:10309000E96EDACFEAFF640ED880EE54000EED54EC
:1030A00001E207D09EAAFED7BAEC12F0040801E0B4
:1030B00008D79EA8FED7060EAD6E00001A0EC96E88
:1030C000C7A0FED7D9CFE9FFDACFEAFFEE2A000E7C
:1030D000EE22EE22EE220068010E016E026A036A01
:1030E000D9CFE9FFDACFEAFFEE500016EE50011615
:1030F000EE500216EE50031600500110021003109D
:10310000DDE1D9CFE9FFDACFEAFFEE52020EEE5E43
:10311000000EEE5A000EEE5A8B848B94830EC96E0D
:10312000C7A0FED7D9CFE9FFDACFEAFFEECF00F094
:10313000EECF01F0EECF02F0EFCF03F0100ED890FB
:103140000332023201320032E806F9E10050C96E62
:10315000C7A0FED7D9CFE9FFDACFEAFFEECF00F064
:10316000EECF01F0EECF02F0EFCF03F0080ED890D3
:103170000332023201320032E806F9E10050C96E32
:10318000C7A0FED7000EDB50C96EC7A0FED78B8448
:103190008B94D70EC96EC7A0FED7C968C7A0FED74B
:1031A000800EC914FAE08B840F0EE15C02E2E16A42
:0C31B000E552E16EE552E7CFD9FF1200B6
:0431BC000001C26BE1
:1031C0008188120081888194818412008198819481
:1031D00081841200D9CFE6FFE1CFD9FF040EE126AA
:1031E000020EDB6A030EDB6AFE0EDB500001C25DDD
:1031F00012E1FE0EDB50060805E1E4DF0001070ED8
:10320000C26F08D0FE0EDB500D0804E1DBDF0001C9
:103210000E0EC26F16D1FE0EDB5017E1DE6ADD6ABC
:10322000DECF00F0DDCF01F0D890015004E6050EAE
:10323000005C000E015806E2C5DFDF2A010E01E343
:10324000DB2AEED70001C26BFCD0FE0EDB50070874
:1032500004E1060E0001C25D08E1FE0EDB500E081F
:103260000CE10D0E0001C25D08E0050EF36E020ECA
:10327000F3CFDBFF030EDB6AE4D0D950020FE96E17
:10328000DACFEAFFEE50ED1001E0DBD0FE0EDB50AE
:103290000001C25D01E1D5D00001C2510F0A01E178
:1032A000BAD0010A01E1A9D0030A01E1A1D0010AC3
:1032B00001E190D0070A01E188D0010A01E177D04D
:1032C000030A70E0010A61E00F0A51E0010A4AE0D6
:1032D000030A3AE0010A33E0070A23E0010A0FE09B
:1032E000030A08E0010A01E0A3D070DF0001010E2B
:1032F000C26FA6D067DF0001020EC26FA1D0090E17
:10330000F36EFE0EDBCFF4FFF350F45C05E35ADFFF
:103310000001090EC26F04D059DF0001030EC26F15
:103320008FD0FE0EDB50040805E150DF0001040ED3
:10333000C26F04D047DF0001050EC26F81D042DFAB
:103340000001050EC26F7CD0FE0EDB50060805E1C1
:103350003DDF0001060EC26F04D034DF0001080E0D
:10336000C26F6ED02FDF0001070EC26F69D0FE0E54
:10337000DB50040805E12ADF0001040EC26F04D00F
:1033800021DF0001080EC26F5BD0FE0EDB0405E1F9
:103390001DDF0001010EC26F04D014DF0001020E18
:1033A000C26F4ED013DF00010A0EC26F49D0FE0E6D
:1033B000DB500B0805E10ADF00010B0EC26F04D0E1
:1033C00001DF00010C0EC26F3BD0FCDE00010C0ED1
:1033D000C26F36D0FE0EDB500D0805E1F7DE0001AE
:1033E0000D0EC26F04D0EEDE00010F0EC26F28D0AA
:1033F000E9DE00010E0EC26F23D0FE0EDB500B087B
:1034000005E1E4DE00010B0EC26F04D0DBDE00013B
:103410000F0EC26F15D0FE0EDB0405E1D7DE0001F2
:10342000010EC26F04D0CEDE0001020EC26F08D0C2
:10343000050EF36E020EF3CFDBFF030EDB6A00D046
:103440001CD7020EDBCF00F0030EDBCF01F000C073
:10345000F3FF01C0F4FF00D0040EE15C02E2E16A78
:10346000E552E16EE552E7CFD9FF12000001C22B11
:02347000120048
:0E347200176A25AE42EF1AF0246C251EE86A98
:103480002522171E20AE4AEF1AF01F6C201EE86A94
:103490002022171E35EC1DF020BE5AEF1AF017AE91
:1034A000000C1F6C201EE86A20221B6C1C1EE86AA0
:1034B0001C22000C17BE51EF1AF01888FF0C176A77
:1034C000E86A25AE6CEF1AF0226C231E241E251E1E
:1034D000232224222522171E20AE77EF1AF01D6C1E
:1034E0001E1E1F1E201E1E221F222022171E11EC30
:1034F0001DF020BE8EEF1AF017AE000C1D6C1E1EC4
:103500001F1E201EE86A1E221F222022196C1A1E6E
:103510001B1E1C1E1A221B221C22000C17BE7EEF33
:103520001AF01888FF0C20C02AF01FC029F01F5085
:103530002402F4CF1EF0F3CF1DF020502502F4CF6B
:1035400020F0F3CF1FF02402F3501E26F4501F2268
:10355000E86A202229502502F3501E26F4501F222B
:10356000E86A202225AEB9EF1AF029501F5E2A50D2
:10357000205A2AAE000C24501F5E2550205A000C01
:103580002A0EF66E080EF76E000EF86E00010900A6
:10359000F550B96F0900F550BA6F03E1B96701D072
:1035A0003DD00900F550B46F0900F550B56F090022
:1035B000F550B66F09000900F550E96E0900F550A5
:1035C000EA6E090009000900F550B76F0900F550CF
:1035D000B86F09000900F6CFBBF0F7CFBCF0F8CF09
:1035E000BDF0B4C0F6FFB5C0F7FFB6C0F8FF0001EC
:1035F000B75302E1B85307E00900F550EE6EB70784
:10360000F8E2B807F9D7BBC0F6FFBCC0F7FFBDC0F2
:0E361000F8FF0001B907000EBA5BBFD7120029
:02361E00D9CF02
:10362000E6FFDACFE6FFE1CFD9FFE2CFDAFFE652DD
:10363000E652E652E652D950FB0F006EFF0EDA203A
:10364000016E00C0DEFFDD6EDECFE6FFDDCFE6FF00
:10365000FB0EDBCFE6FFFC0EDBCFE6FFFD0EDBCF84
:10366000E6FFC0C0E6FFC1C0E6FFA7EC0CF0006EAD
:10367000070EE15C02E2E16AE552E16E0050020EE3
:10368000F3CFDBFF030EF4CFDBFF020EDBCF00F046
:10369000030EDBCF01F000C0F3FF01C0F4FF040E06
:1036A000E15C02E2E16AE552E16EE552E5CFDAFF64
:0636B000E7CFD9FF120074
:0A36B600D9CFE6FFE1CFD9FFE652BD
:1036C000C79EC79CC688C690C692C694C696C68A30
:1036D0008B848B94D70EC96EC7A0FED7C968C7A0CC
:1036E000FED7C950DF6E8B84DFB02AD08B943D0E9D
:1036F000C96EC7A0FED72A0EC96EC7A0FED7800E1E
:10370000C96EC7A0FED7A60EC96EC7A0FED78B8410
:103710008B94D70EC96EC7A0FED7C968C7A0FED7C5
:10372000800EC914FAE08B84100EE66E390EE66E38
:10373000000EE66E2BEC1CF0E552E552E552FFD789
:0A374000E552E552E7CFD9FF120071
:06374A00D9CFE6FFDACF43
:10375000E6FFE1CFD9FFE2CFDAFFE652FB0EDBCF87
:10376000F6FFFC0EDBCFF7FFFD0EDBCFF8FF080006
:10377000F550DF6EDF5024E0F90EDBCFE6FFFA0EE6
:10378000DBCFE6FFDFCFE6FFE9EC1BF0E552E552C9
:10379000E552F3CF00F0F4CF01F00001F31C05E196
:1037A000011C03E1F368F4680DD0D950FB0FE96EFA
:1037B000FF0EDA20EA6EEE2A000EEE22EE22CED7BF
:1037C000F36AF46AE552E552E5CFDAFFE7CFD9FFB5
:0237D0001200E5
:0E37D200D9CFE6FFDACFE6FFE1CFD9FFE2CF95
:1037E000DAFFFB0EDBCF00F0FC0EDBCF01F00001B7
:1037F000800E01141AE1FB0EDBCFE9FFFC0EDBCFDC
:10380000EAFFEECFF3FFEDCFF4FFEE2A000EEF223A
:10381000F3CFE9FFF4CFEAFFFD0EDBCFEFFFEF5070
:10382000016AF36E01C0F4FF10D0FB0EDB50FE08FE
:1038300006E1FD0EDBCFE6FF5DEC1DF005D0FD0ED1
:10384000DBCFE6FF86EC1DF0E552E552E5CFDAFF6F
:06385000E7CFD9FF1200D2
:0A385600D9CFE6FFDACFE6FFE1CF9D
:10386000D9FFE2CFDAFFE652E652C0C0E6FFC1C0A0
:10387000E6FFFB0EDBCFE6FFFC0EDBCFE6FFFD0E27
:10388000DBCFE6FFA5EC1BF0006E050EE15C02E26B
:10389000E16AE552E16E0050F3CFDEFFF4CFDDFFC9
:1038A000C0C0E6FFC1C0E6FF0A0EE66EE9EC1BF001
:1038B000E552E552E552DECF00F0DDCF01F000C069
:1038C000F3FF01C0F4FFE552E552E552E5CFDAFF20
:0638D000E7CFD9FF120052
:0A38D6000D0A313939204F4B000D67
:1038E0000A3425303264204552524F520D0A000DE1
:1038F0000A31303020585356462D4578656375742B
:103900006F7220312E302E31206F6E2050494300CF
:1039100041543435444220706167652073697A658B
:1039200020686173206265656E2073657420746F12
:10393000203531322E20506C6561736520637963C8
:0C3940006C6520706F7765722E0D0A0018
:04394C001D502202E6
:10395000F3CF19F0F4CF1AF02302F3501A26000E19
:10396000F4201B6E1D502402F3501B26000EF42081
:103970001C6E1D502502F3501C261E502202F350CF
:103980001A26F4501B22000E1C221E502302F35054
:103990001B26F4501C221E502402F3501C261F50DC
:1039A0002202F3501B26F4501C221F502302F35016
:0C39B0001C2620502202F3501C2612009E
:0439BC00FE0EE3CF49
:1039C000E9FFFF0EE3CFEAFFF36AF46AEE5203E089
:1039D000F34AF42AFBD71200FF0EE3CFF8FFE552BB
:1039E000FF0EE3CFF7FFE552FF0EE3CFF6FFE55200
:1039F000E66AE66AE66A0900F55209E0FD0EE32A86
:103A000005E1FE0EE32A02E1FF0EE32AF4D7FD0EE4
:103A1000E3CF1EF0FE0EE3CF1FF0FF0EE3CF20F04A
:023A2000120092
:0E3A22001C6A1B6A1A6A196A200EE76ED89099
:103A30001D361E361F36203619361A361B361C36F2
:103A40002250195C23501A5824501B5825501C58DA
:103A500009E32250195E23501A5A24501B5A25504C
:0A3A60001C5A1D2AE72EE4D71200BD
:063A6A001C6A1B6A100E2D
:103A7000E76ED8901F3620361B361C3624501B5C50
:103A800025501C5805E324501B5E25501C5A1F2A44
:063A9000E72EF0D7120042
:0A3A9600F36AF46AFF0EE124E96E02
:103AA000FF0EE220EA6EED6607D02F0EEF6404D021
:0A3AB0003A0EEF6001D0F32A120075
:063ABA00FF0EE350ACBA60
:103AC00004D0AF6AAB8EAC8A949CACA2FED7AD6E2C
:063AD000F36EF46A12001F
:0A3AD60013EE00F023EE00F0F86A92
:0C3AE000C0EC1AF01EEC0CF0FDD7120038
:043AEC003031323310
:0D3AF000343536373839616263646566002D
:023AFE0000EED8
:0C3B000000F00F0EEE6AEA62FDD7120022
:023B0C001200A5
:023B0E00FEFFB8
:00000001FF
