:0408000000EF05F010
:06082A00D9CFE5FFE1CF8C
:10083000D9FF00C0E5FF020E836F81800000819028
:10084000280E826F69EC05F083078351F6E1030EF1
:10085000836F010E826F818069EC05F08190220E1A
:10086000826F69EC05F083078351F3E1060E836F15
:10087000030E826F818069EC05F081901C0E826FFF
:1008800069EC05F083078351F3E1070E836F040ED3
:10089000826F818069EC05F08190160E826F69ECA1
:1008A00005F083078351F3E1080E836F060E826F14
:1008B000818069EC05F081900E0E826F69EC05F085
:1008C00083078351F3E10A0E836F070E826F8180E5
:1008D00069EC05F08190080E826F69EC05F08307E2
:1008E0008351F3E1B4AC47D08180000000000000E8
:1008F00000000000000000000000000000000000F8
:1009000000000000000000000000000000000000E7
:1009100000000000000000000000000000000000D7
:1009200000000000000000000000000000000000C7
:1009300000000000000000000000000000000000B7
:1009400000000000000000000000000000000000A7
:100950000000000000000000000000000000000097
:100960000000000000000000000000008190000076
:10097000000000000000006A81B2002A005001E17E
:10098000B1D7E4CF00F0E4CFD9FF1200D9CFE5FF13
:10099000E1CFD9FF00C0E5FFC6BCC69C2D0EC71431
:1009A000006E090A0AE000500D0A15E00050280AFE
:1009B00022E00050290A04E01ED0C950C6881BD08E
:1009C000010EC914006E010BF46E8250FE0BF41080
:1009D000826EC68810D0C950938A006A81BA002AF4
:1009E00000C084F0939AC7B0FED7C69E84C0C9FFEA
:1009F000C6BEFBD7C688E4CF00F0E4CFD9FF120013
:100A0000140E816FFB0E800E802FFED7812FFAD738
:100A1000F26AE06A2EEC05F052EC05F0819A8280D1
:100A20000A0EB56EB58E060EB46E3F0E806F802F27
:100A3000FED7B450819081A208D0C6BC02D09EA639
:100A4000FAD79E96C6EC04F0F6D7C69A818A15ECC2
:100A500004F081908190819AC68AEDD7D9CFE5FFC5
:100A6000E1CFD9FFA36AA06A9D6ACA6ACD6AD56A36
:100A7000BA6ABD6AC16AC26AB56AB46AAC6AAB6A6C
:100A8000060EC66EC68AC688C5801C0EC86EC76AAA
:100A90009E960E0EC16E020ED36E400E9B6EE4CF7C
:100AA000D9FF1200D9CFE5FFE1CFD9FF2F0E926E0B
:100AB000806EDE0E936E816EFD0E826EFE0E946E63
:100AC000E4CFD9FF120065EF05F000EC05F067EF09
:080AD00005F0822FFED7120091
:00000001FF
